:0400000080311B2808
:100008007E1480310B1F09280A2819284E01991ED1
:100018000E280F2819288F1E122813281928400186
:1000280062088A0061080A0080317E100900803168
:100038001D28873168278031E300FC0120308400C7
:1000480000308500243087311E278031A03084009D
:1000580000308500203087311E2780317E10400116
:10006800803136288631B32680318B170B178631BD
:100078008D26803187310D278031003A03194528B4
:1000880046286D294101CB01CC0187310D278031EC
:10009800003A0319502851286628853124258031D3
:1000A8004001D70041014B08C03E8600870140014E
:1000B8005708810007304001D7007D30890B62283E
:1000C800D70B622801304101CB070030CC3D4C08EA
:1000D800803A4001D70080305702031D76280A3045
:1000E80041014B02031C79287A2849285229C33038
:1000F800D3008630D4008631A12680316330400198
:10010800D3008630D4008631A12680314B3040019F
:10011800D3008630D4008631A12680317930400161
:10012800D3008630D4008631A12680319930400131
:10013800D3008430D4008631A1268031E2304001DA
:10014800D3008530D4008631A1268031D7304001D4
:10015800D3008230D4008631A1268031313040016D
:10016800D3008430D4008631A12680311A30400172
:10017800D3008630D4008631A1268031EA28410197
:1001880046084001D700D8015808003A0319CD287D
:10019800EA285708013A03197B28033A03198228E9
:1001A800013A03198A28073A03199228013A0319D0
:1001B8009A28033A0319A228013A0319AA280F3AE0
:1001C8000319B228023A0319BA28EA2840011A1674
:1001D80006304001D8001330D700AD30890BF22823
:1001E800D70BF228D80BF228003240011A121C292A
:1001F8003330D3008630D4008631A1268031B03028
:100208004001D3008530D4008631A1268031D0301A
:100218004001D3008630D4008631A12680319C303D
:100228004001D3008530D4008631A126803134299D
:10023800410146084001D700D8015808003A03197F
:10024800262934295708013A0319FC28033A0319C7
:100258000329013A03190B29073A031913293429E9
:10026800F6304001D3008430D4008631A126803195
:1002780076304001D3008530D4008631A126803104
:10028800C8304001D3008430D4008631A1268031A3
:10029800410140088631DB2680316D294101430840
:1002A8004001D700D8015808003A03195C296D2984
:1002B80057083C3A03193429013A03193C29023AF0
:1002C80003191C297F3A0319C328013A0319442941
:1002D8006D2940010F18712972297F290130863153
:1002E800F926803182304001D700DD30890B7A2928
:1002F800D70B7A29003240018F1883298429912944
:1003080002308631F926803182304001D700DD3055
:10031800890B8C29D70B8C29003240010F1995299C
:100328009629A32903308631F9268031823040018D
:10033800D700DD30890B9E29D70B9E29003240015A
:100348008F19A729A829B52904308631F9268031C3
:1003580082304001D700DD30890BB029D70BB02996
:10036800003240010F1AB929BA29C7290530863148
:10037800F926803182304001D700DD30890BC2294F
:10038800D70BC229003240018F1ACB29CC29D92991
:1003980006308631F926803182304001D700DD30C1
:1003A800890BD429D70BD429003240010F1BDD2932
:1003B800DE29EB2907308631F92680318230400169
:1003C800D700DD30890BE629D70BE629003240013A
:1003D8008F1BEF29F029FD2908308631F926803155
:1003E80082304001D700DD30890BF829D70BF82976
:1003F800003240011018012A022A0F2A09308631DA
:10040800F926803182304001D700DD30890B0A2A75
:10041800D70B0A2A003240019018132A142A212ADD
:100428000A308631F926803182304001D700DD302C
:10043800890B1C2AD70B1C2A003240018E19252A49
:10044800262A322A87312A27803182304001D70074
:10045800DD30890B2D2AD70B2D2A003240018E1A48
:10046800362A372A432A87313027803182304001A3
:10047800D700DD30890B3E2AD70B3E2A0032031005
:1004880040011A1E031403184A2A4D2A40011A165D
:100498004F2A40011A1282304001D700DD30890B03
:1004A800532AD70B532A00323E2880311B28FB00E1
:1004B8004001440886008701403FC600413FC7000D
:1004C80046088400470885001200253A031D6D2A56
:1004D8006E2AB32A4408860087010130810741311A
:1004E8000318810ABA01BB01BE01BF01FF30BC007D
:1004F800FF30BD00440886008701403FC600413FE9
:10050800C70046088400470885001200253A031DE5
:100518008E2A8F2AA82A440886008701013081077D
:1005280041310318810A2530F3000030F4007B08BC
:10053800C6004608F5008331B923823101304001F5
:10054800C4000030C500D62A44088600870101305F
:10055800810741310318810AC401C501D62A44081C
:1005680086008701403FC600413FC7004608840017
:10057800470885000008C800C9014808F300490871
:10058800F4007B08CA004A08F5008331B923823198
:100598004001440886008701013081074131031872
:1005A800810AA22A080049346E34733465347234DF
:1005B800743469346F346E34203465347234723470
:1005C8006F34723420342D34203461346E34203446
:1005D80069346E34733465347234743469346E3407
:1005E800673420346F347034653472346134743451
:1005F80069346F346E3420346F346E346C3479342B
:100608002034633461346E342034623465342034E9
:1006180064346F346E346534203477346834653428
:100628006E34203461342034743472346134633469
:100638006B3420346934733420346234653469345B
:100648006E346734203470346C34613479346534F2
:1006580064340A34003440019C019B0198019901DB
:100668009A010F309600FF309200BF309300AF30F0
:100678009400FF3095007E01D9010730CE003F304D
:10068800C3000430E400FF30B800FF30DA00033064
:10069800E500C401B9012830CF00E601BA01C5015F
:1006A800D001DB01FF30BB00FF30C600FF30D100B6
:1006B800FF30DC000730E700FF30BC00FF30C70028
:1006C800FF30D200FF30DD000F30E80011309E000F
:1006D8000F30A6000F307D01CD001730CB00080089
:1006E8004001C40045308600003087000830F30020
:1006F80000301E00F30B7D2B7E30F3007308C5001D
:10070800FF30F3007308C6000630F3007308C70013
:100718004408F3007308C800C901C90ACA0172086D
:10072800F3007308CB00EF30F3007308CC00CD0161
:10073800CE0140014D08453E8600870101088731FA
:100748000327833101304001CD070030CE3D4E08EC
:10075800803AF30080307302031DB42B08304D0239
:10076800031CB72BB82B9D2B080075080319BD2B4C
:10077800BE2BC32B7508031DC22BC32BC82B7308B4
:10078800873124278331F72B7508033E86008701BC
:10079800160001040319D12BD22BEF2B7508033E49
:1007A80086008701403FF600413FF700750A860042
:1007B8008701403FF800413FF9007908803AFA0084
:1007C8007708803A7A02031DEB2B76087802031823
:1007D800EE2BEF2BF72B750A860087010130810776
:1007E80041310318810A08007C08283E86008701E9
:1007F800810142011D1D012C022C0D2C7C08283E74
:10080800860087018114400160088A005F080A0099
:10081800843142019D1C112C122C1D2C7C08283E71
:1008280086008701011540015E088A005D080A00FC
:1008380084317C08283E8600870101080319252C8D
:10084800262C2D2C40015C088A005B080A008431A4
:10085800302C863100268331080053344434203448
:1008680063346134723464342034723465346134EE
:10087800643469346E3467342034663461346934DE
:100888006C346534643420342D3420345334443487
:1008980020346334613472346434203470347534F1
:1008A8006C346C346534643420346F347534743487
:1008B80020346F3472342034643461346D346134DC
:1008C8006734653464340A3400344E019912F830C0
:1008D800F1000330F20087314827843108304201A3
:1008E8009F0090309D0024309E0067309B009C0143
:1008F8006930F1000730F2008731542784316030C5
:10090800F1000730F20087314E2784316430F1005E
:100918000730F20087315A2784314001C101FC01B8
:10092800C301C2014E01991608005334703465346E
:100938006334693466346934653464342034743417
:100948007234613463346B34203469347334203442
:100958006F347534743420346F346634203463341F
:1009680075347234723465346E34743420347434AB
:100978007234613463346B342034733463346F34C9
:10098800703465340A3400346D346F34643475342B
:100998006C346534203468346134733420347334EF
:1009A800753463346334653473347334663475343E
:1009B8006C346C347934203472346534633465347F
:1009C8006934763465346434203474346834653476
:1009D800203463346F346D346D3461346E34643470
:1009E8000A34003454347234613463346B34203440
:1009F800693473342034663469346E34693473343A
:100A0800683465346434203470346C346134793437
:100A180069346E346734203469346E342034553484
:100A280053344234203466346C346134733468345B
:100A38002034643472346934763465340A340034CA
:100A4800400142080319292D2A2D242D4308283E48
:100A5800860087010108F1007108C1004308303E93
:100A6800860087010108F1007108F2000130F100E9
:100A78007108C30708304302031C432D442D452D3C
:100A8800C3014E01991201304001C2024E0199166C
:100A9800720808004001D0004C08D2004B08D10071
:100AA800B801B901682D5130CE004E08C4004D0878
:100AB800CF004F08C500500882315B2285314001C4
:100AC8004408B8074508B93D510884005208850014
:100AD8001200031D702D712D572D3908CC003808D0
:100AE800CB00080054347234613463346B342034DE
:100AF800693473342034663469346E346934733439
:100B0800683465346434203470346C346134793436
:100B180069346E346734203469346E342034533485
:100B28004434203463346134723464340A34003415
:100B3800553453344234203466346C34613473345D
:100B4800683420346434723469347634653420343B
:100B580061346E3464342034533444342034633480
:100B680061347234643420346F346E346C346934D4
:100B78006E3465340A340034083054019F009030D4
:100B88009D0024309E0067309B009C010030F100DE
:100B98000030F20087313C2785310030F100003009
:100BA800F2008731362785310030F1000030F2003D
:100BB8008731422785314001C00108005334703421
:100BC8006534633469346634693465346434203494
:100BD80074347234613463346B342034693473345C
:100BE80020346E346F347434203466346F34753482
:100BF8006E3464340A34003442011908F0007C0869
:100C0800303E86008701700881000130F0007008CE
:100C1800FC0708307C02031C122E132E142EFC0134
:100C28000130F00070084001C207080045346E34F6
:100C380074346534723465346434203469346E3401
:100C480074346F34203473346C34653465347034E0
:100C580020346D346F34643465340A3400345534C8
:100C680053344234203466346C3461347334683419
:100C780020346434723469347634653420346F3403
:100C88006E346C3469346E3465340A340034533449
:100C980065347234693461346C34203472346534A8
:100CA800633465346934763469346E346734203497
:100CB8006534723472346F3472340A340034433415
:100CC80075347234723465346E3474346C347934F7
:100CD800203473346C3465346534703420346D34A6
:100CE8006F34643465340A3400344334683465340A
:100CF80063346B34733475346D34203469346E3432
:100D080063346F34723472346534633474340A343F
:100D180000340A30F50075084001E3000B30F60096
:100D28002630F5005E30890B972EF50B972EF60BC3
:100D3800972E8631E5268631080055304001D500CA
:100D48005508D6005408CC005308CB005630D500BF
:100D58005508CD00003085314E2586310800873191
:100D68001627863183312F2386318631EF26863147
:100D78008431692486318531C025863108004D3497
:100D88006F34643475346C346534203462347534AB
:100D9800733479340A3400345034433420346F3493
:100DA8006E346C3469346E3465340A340034F100BE
:100DB8004E010F1FE02EE12EDC2E710854019A001F
:100DC800080040016308F4007408F200063083311B
:100DD800742386310800623051018D008F01910122
:100DE80005309300900192010800F5007508F400A1
:100DF8007408F20003308331742386310800F1004F
:100E08004E010F1E082F092F042F710842019A0066
:100E1800080040014208031D122F142F0130152F1E
:100E2800003008004F0196019701980199019A0135
:100E38009B010800640080010131890B1F2F0034D9
:100E4800F20072088631DB2687310800F20104308F
:100E58008331742387310800F2010530833174230C
:100E68008731080072084101D0007108CF000800DE
:100E780072084001DA007108D900080072084101BF
:100E8800CE007108CD00080072084001E200710828
:100E9800E100080072084001DE007108DD0008006A
:100EA80072084001E0007108DF0008007208400184
:100EB800DC007108DB00080042011D121D16080045
:0C0EC80086310026873108000A3408003B
:020000040001F9
:0A000E00EC3FFF3F9F3FFF1FFF3F45
:00000001FF
